:020000040800F2
:1000000000800120C9D400089D050008A105000852
:10001000A5050008A9050008AD05000800000000BE
:10002000000000000000000000000000B105000812
:10003000B505000800000000B9050008BD0500086E
:1000400019D5000819D5000819D5000819D50008D8
:1000500019D5000819D5000819D5000819D50008C8
:1000600019D5000819D5000819D5000819D50008B8
:1000700019D5000819D5000819D5000819D50008A8
:1000800019D5000819D5000819D50008000000008E
:1000900000000000000000000000000019D500086A
:1000A00019D5000819D5000819D5000819D5000878
:1000B00019D5000819D5000819D5000819D5000868
:1000C00019D5000819D5000819D5000819D5000858
:1000D00019D5000819D5000819D50008000000003E
:1000E00019D5000819D5000819D50008000000002E
:1000F00000000000000000000000000019D500080A
:100100000000000019D5000819D5000819D500080D
:1001100000000000000000000000000000000000DF
:1001200019D5000819D5000819D5000819D50008F7
:1001300019D50008000000000000000000000000C9
:1001400000000000000000000000000019D50008B9
:1001500019D5000819D5000819D5000819D50008C7
:1001600019D5000819D500080000000000000000A3
:10017000000000000000000000000000000000007F
:100180000000000019D50008000000000000000079
:0401900019D5000875
:1001C0000348044B834202D0034B03B118477047E6
:1001D000C4090020C40900200000000005480649A9
:1001E0000B1AD90F01EBA301491002D0034B03B145
:1001F00018477047C4090020C4090020000000000F
:1002000010B5064C237843B9FFF7DAFF044B13B15E
:100210000448AFF300800123237010BDC8090020FB
:1002200000000000ACD6000808B5044B1BB104491F
:100230000448AFF30080BDE80840CFE700000000AD
:10024000CC090020ACD6000804B02DE500B08DE24A
:100250002CD04DE220000BE524100BE528200BE507
:1002600020301BE508300BE50030A0E30C300BE537
:100270000030A0E310300BE51D0000EA24201BE550
:1002800010301BE51233A0E114300BE514301BE5F0
:10029000C33FA0E118300BE518201BE508301BE533
:1002A000023003E01C300BE50C201BE51C301BE585
:1002B000023023E00C300BE508301BE50300A0E121
:1002C0000010A0E30020A0E30030A0E3A020A0E104
:1002D000812F82E1A130A0E108301BE5833FA0E13E
:1002E000033082E108300BE510301BE5013083E27A
:1002F00010300BE510301BE51F0053E3DEFFFFDA83
:1003000028301BE50C201BE5002083E50000A0E160
:1003100000D08BE204B09DE41EFF2FE100482DE9E0
:1003200004B08DE220D04DE220000BE524100BE557
:1003300090309FE518300BE58C309FE514300BE5CD
:1003400088309FE510300BE584309FE50C300BE5DD
:100350000030A0E308300BE5120000EA08301BE58E
:100360000331A0E104204BE2033082E0140013E5E6
:1003700008301BE50331A0E120201BE5033082E0BB
:10038000001093E508301BE50331A0E124201BE5B4
:10039000033082E00320A0E1AAFFFFEB08301BE559
:1003A000013083E208300BE508301BE5030053E31E
:1003B000E9FFFFDA0000A0E10000A0E104D04BE279
:1003C0000048BDE81EFF2FE1851086A32170416320
:1003D00080F22C691348A54800482DE904B08DE24D
:1003E00038D04DE230000BE534100BE538200BE53A
:1003F00030301BE5003093E528300BE530301BE54D
:10040000043093E524300BE530301BE5083093E5EC
:1004100020300BE530301BE50C3093E51C300BE54C
:100420000030A0E308300BE5270000EA28201BE598
:1004300008301BE50332A0E134101BE5033081E0F6
:10044000003093E5033082E018300BE524201BE5F3
:1004500008301BE50332A0E134101BE5033081E0D6
:10046000043093E5033082E014300BE520201BE5D7
:1004700008301BE50332A0E134101BE5033081E0B6
:10048000083093E5033082E010300BE51C201BE5BB
:1004900008301BE50332A0E134101BE5033081E096
:1004A0000C3093E5033082E00C300BE528204BE262
:1004B00018304BE20210A0E10300A0E196FFFFEB31
:1004C00008301BE5013083E208300BE508301BE5FE
:1004D0000D0053E3D4FFFFDA28201BE538301BE57D
:1004E000002083E538301BE5043083E224201BE53F
:1004F000002083E538301BE5083083E220201BE52F
:10050000002083E538301BE50C3083E21C201BE51E
:10051000002083E50000A0E104D04BE20048BDE8E4
:100520001EFF2FE100482DE904B08DE211DE4DE2FF
:1005300014304BE20020A0E3002083E5042083E593
:10054000082083E50C2083E5413F4BE2F020A0E347
:100550000010A0E30300A0E1871900FA453F4BE239
:100560000020A0E3002083E5042083E5082083E544
:100570000C2083E5452F4BE2411F4BE214304BE248
:100580000300A0E193FFFFEB1030A0E30300A0E124
:1005900004D04BE20048BDE81EFF2FE1704700BFCA
:1005A000FEE700BFFEE700BFFEE700BFFEE700BFBB
:1005B000704700BF704700BF704700BF704700BF63
:1005C00070B58AB01B4B1C4C00220192196B41F094
:1005D00001011963196B01F0010101910199029266
:1005E000196B41F001011963196B01F001010291CE
:1005F000029903921A6C42F400321A641B6C03F4E1
:100600000033039304220223CDE904232046012270
:1006100004A907250223CDE90623039E089500F0CF
:10062000BBFC082304A920460895049300F0B4FC01
:100630000AB070BD00380240000002400A4B1A6A3E
:1006400042F4003210B51A621A6A084C22F40032E1
:10065000204604211A6200F093FD20460821BDE8DF
:10066000104000F08DBD00BF003802400000024085
:100670000C4908B50B6853B10B4A1268126818444C
:10068000A2F50072904205D80860184608BD074BD5
:100690000B60F1E706F02EFA0C2303604FF0FF33F6
:1006A000184608BDE409002008ED00E01C0B0020FE
:1006B00011B10023C1E9003300207047704700BF2B
:1006C0000120704708B506F015FA162303604FF0B5
:1006D000FF3008BD08B506F00DFA16230360FEE7EB
:1006E00070B5161E07DD0C468D1914F8010B00F0CD
:1006F000B3F8AC42F9D1304670BD00BF4FF0FF30C7
:10070000704700BF4FF400534B600020704700BF9C
:10071000012070470020704770B5161E07DD0C469B
:100720008D19AFF3008004F8010BA542F9D13046D2
:1007300070BD00BF0EB44FF0FF3003B0704700BF74
:1007400008B506F0D7F90A2303604FF0FF3008BD63
:1007500008B506F0CFF9022303604FF0FF3008BD63
:100760004FF0FF30704700BF4FF400534B60002044
:10077000704700BF08B506F0BDF91F2303604FF0B6
:10078000FF3008BD08B506F0B5F90B2303604FF044
:10079000FF3008BD08B506F0ADF90C2303604FF03B
:1007A000FF3008BD0D4B0E481A68002142F00102CF
:1007B00010B41A6099601A680A4C22F0847222F40C
:1007C00080321A605C601A684FF0006422F4802264
:1007D0001A60D960846010BC704700BF00380240C6
:1007E00000ED00E010300024164A936803F00C037B
:1007F000042B0CD0082B0CD0134B124A13489268D0
:100800001349C2F30312825CD3400B607047114B53
:10081000F3E75068516852684302C2F388124CBF34
:100820000C4B094B01F03F01B3FBF1F303FB02F367
:10083000044A5268C2F3014201325200B3FBF2F3A0
:10084000DBE700BF003802400024F400C8D60008EF
:100850000000002000127A0000B583B04FF6FF734D
:100860000190012201A9034800F0B6FF019803B0EE
:100870005DF804FBD40A00202DE9F0438BB0304C26
:10088000304D314B2360002601962B6BA66043F060
:1008900001032B632B6BA66203F001030193019B01
:1008A00002962B6BE66043F001032B632B6BDFF8A2
:1008B0009C80266203F0010302934FF400724FF410
:1008C0008273A26163601020012120220223CDE9FE
:1008D000042302270122E0616161404604A94FF030
:1008E000050903234FF0070CCDE90623C4F82CC0FB
:1008F0006662DDF808C02761CDF8209000F04CFB5F
:1009000004A9404680230493CDF82090069700F078
:1009100043FB04A9404640230493069700F03CFBA8
:1009200003966B6C43F480536B646B6C03F48053DD
:1009300003932046039B03F059FB0BB0BDE8F08303
:10094000F009002000380240003001400000024061
:10095000004870470007020170B588B0114B124D76
:1009600000260196196B41F0010119631B6B03F01E
:1009700001030193019B044620220123CDE90223B8
:1009800055F82000022302A90022CDE9042300F03B
:1009900003FB55F824003246202100F08FFC08B0FC
:1009A00070BD00BF003802400400002038B5074D7C
:1009B0000446202155F82000002200F07FFC55F865
:1009C00024002021BDE8384000F0DABB04000020FC
:1009D000034B012253F82000202100F06FBC00BF20
:1009E00004000020034B002253F82000202100F0D7
:1009F00065BC00BF04000020024B202153F82000FA
:100A000000F060BC0400002030B589B01C4B00250C
:100A100001951C6B44F004041C631B6B03F004037E
:100A20000193019BD1B1012901D009B030BD154B13
:100A3000049503EB8000144B40684FF4005202A968
:100A4000CDE9022300F0A8FA2A460F21282001F060
:100A500005FD282001F03AFD09B030BD094B03EB3C
:100A600080000222022340684FF40054002502A9AE
:100A7000CDE90245CDE9042300F08EFA09B030BD7E
:100A800000380240040000200000211010B5044688
:100A9000282001F029FD054800EB84004FF40051A7
:100AA000BDE81040406800F06BBB00BF04000020B0
:100AB00008B5044B03EB80034FF40051586800F075
:100AC000F7FB08BD04000020F0B58BB0254B26488D
:100AD000002203921A6B42F002021A631B6B03F0AE
:100AE00002030393012203232024012504A9CDE955
:100AF0000445CDE90623039E00F04EFA1B4805F09D
:100B0000C5F958B318481A4F184D0122202100F09A
:100B1000D5FB0A24FF2603E0631E13F0FF041BD05D
:100B2000BB6800930DF10B0201230DF10A01284669
:100B30008DF80A6003F0FCFB0028EDD0284603F096
:100B40009DFA284605F0A2F90028E5D1FFF794FEAA
:100B5000631E13F0FF04E3D10BB0F0BDFFF78CFE72
:100B6000D0E700BF0038024000040240F009002036
:100B700004000020012804D004480022202100F0B5
:100B80009DBB02462021014800F098BB00040240B2
:100B900030B50D4D83B00C461346AA68009201464D
:100BA00022460A4803F0C4FB08B903B030BD074829
:100BB00003F064FA054805F069F90028F5D103B09F
:100BC000BDE8304058E600BF04000020F0090020D6
:100BD00010B5114B86B09B680093044601230F4863
:100BE0008DF80F400DF117020DF10F0103F0A0FB7E
:100BF00018B99DF8170006B010BD084803F03EFA7A
:100C0000064805F043F90028F3D1FFF735FE9DF8BB
:100C1000170006B010BD00BF04000020F00900203E
:100C200010B588B01B4B1C48002100911A6B42F094
:100C300002021A631A6B02F002020092009A0191FA
:100C40001A6B42F001021A631B6B03F0010301935C
:100C500040220123CDE9022302A900220323CDE98A
:100C60000423019C00F098F94FF400730B480293A1
:100C700002A900F091F908480122402100F01EFB72
:100C8000074805F003F908B108B010BDFFF7F4FDFF
:100C900008B010BD003802400004024000000240CD
:100CA000F009002010B5002284B004464021144809
:100CB00000F004FB134800224FF4007100F0FEFA2C
:100CC000114B12489B6800930DF10F0201230DF1A7
:100CD0000E018DF80E4003F02BFB30B908480122BD
:100CE000402100F0EBFA04B010BD084803F0C6F94B
:100CF000064805F0CBF80028F0D1FFF7BDFDEDE781
:100D0000000402400000024004000020F00900201E
:100D100010B5002284B004464021144800F0CEFAF9
:100D2000134801224FF4007100F0C8FA114B124829
:100D30009B6800930DF10F0201230DF10E018DF858
:100D40000E4003F0F5FA30B908480122402100F0C6
:100D5000B5FA04B010BD084803F090F9064805F054
:100D600095F80028F0D1FFF787FDEDE70004024079
:100D70000000024004000020F009002070B584B09B
:100D800000220D46044640212748039200F096FABF
:100D9000264801224FF4007100F090FA012D25D071
:100DA000ADB1234B1B686119A01C9A689507FCD54F
:100DB00010F8012C1A739A689407FCD510F8022CCD
:100DC0001A73884200F1020203D01046EDE7184B77
:100DD0001B689A681206FCD4DB6803931248039BD5
:100DE0000122402100F06AFA04B070BD114B104E90
:100DF0009B682478009330462B460DF10B020DF1D1
:100E00000A018DF80A4003F093FA08B93368E3E762
:100E1000304603F033F9304605F038F80028F5D1B4
:100E2000FFF72AFDF2E700BF000402400000024085
:100E3000F00900200400002005F0B2B870B5254C80
:100E400088B004F1580003F091F868B122490822F3
:100E500001230025A1F14800C4E92823C4F8A850C3
:100E600002F0AAFF08B070BD1C4E0090336B2066E4
:100E700043F002033363336B1949606603F00203E6
:100E800000934FF480320123054684F8700084F803
:100E90007800C4F8840084F88800A1650098E265B1
:100EA000E3666367012203230E48049502A9CDE996
:100EB000022300F071F80195736C43F4807373643E
:100EC000736C03F48073019304F15800019B02F0EA
:100ED00069FBBBE7F0090020900A002000380240BF
:100EE0000020014000040240084808B5084B40F8C3
:100EF000583F02F007FC074A0748536C23F48073FD
:100F000053640121BDE8084000F03AB9F00900201F
:100F100000200140003802400004024010B51D4886
:100F200002F00EFC0A211B4802F08EFC194803F067
:100F30001DF810F4007401D1204610BD154802F0D0
:100F400051FE80B2A0F2DB734E2B98BF052404D86B
:100F5000104802F047FE204610BD6FF42A72831835
:100F6000622B98BF0424F3D9A0F2F7434E2B01D88B
:100F70000124EDE7A0F133034E2B98BF0224E7D9FB
:100F80006FF4666318444E2801D80324E0E7002478
:100F9000D2E700BF480A00202DE9F04F00230E6879
:100FA0008E4683B070494FF0010803E00133102BE7
:100FB00000F0888008FA03F232EA060402EA060C1E
:100FC000F4D1DEF8045025F0100ABAF1020F7CD0FB
:100FD000D0F800B04FEA4309032404FA09F405F0FD
:100FE00003072BEA040B07FA09F70AF1FF3A47EA6D
:100FF0000B07BAF1010F6FEA0404076040F28C801E
:10100000C768DEF808203C4002FA09F22243EF00EC
:10101000C260CBD5554C00220192626C42F48042F2
:101020006264626C23F0030707F1804702F4804298
:1010300007F59C37019203F00304019AD7F8089052
:10104000A4000F22A24029EA020A494A904214D081
:1010500002F58062904273D0464A904275D0464A6B
:10106000904279D0454A90420CBF4FF004094FF0AE
:10107000070909FA04F44AEA040AC7F808A00A684A
:101080006FEA0C07EC0354BF3A404CEA02020A60D4
:101090004C68AA0354BF3C404CEA04044C608C6882
:1010A000EA0254BF3C404CEA04048C60CA68AC02BB
:1010B00003F1010354BF3A404CEA0202102BCA600C
:1010C0007FF478AF03B0BDE8F08F4FEAD30900EBAF
:1010D000890903F00707D9F82040BF004FF00F0B34
:1010E0000BFA07FB24EA0B0ADEF81040BC4044EA86
:1010F0000A04C9F82040D0F800A04FEA43090324AD
:1011000004FA09F405F003072AEA040A07FA09F7C2
:1011100047EA0A07E4430760876807EA040ADEF83B
:101120000C7007FA09F747EA0A078760D0F804A0AD
:10113000C5F300172AEA02029F40174347605FE7A2
:1011400008FA04F44AEA040A97E74FF0020909FA98
:1011500004F44AEA040A90E74FF0030909FA04F498
:101160004AEA040A89E700BF003C01400038024017
:101170000000024000080240000C02400010024043
:101180002DE9F04F0023DFF820B1DFF820E183B034
:101190004FF0010C4FF00F094FF0030A02E001334A
:1011A000102B69D00CFA03F232EA010402EA0106BC
:1011B000F5D123F0030505F1804505F59C3503F0D5
:1011C0000304D5F80880A40009FA04F758450197EC
:1011D00007EA080853D0304FB84252D02F4FB842D8
:1011E00052D02F4FB84253D02E4FB84214BF0727CA
:1011F000042707FA04F4A0451CD1AC68019F24EA37
:101200000707AF60DEF8004024EA0604CEF800408D
:10121000DEF8044024EA0604CEF80440DEF8084074
:1012200024EA0604CEF80840DEF80C4024EA06065C
:10123000CEF80C6004685E000AFA06F6DD0824EABF
:10124000060400EB8505046003F007042F6AA40080
:1012500009FA04F427EA04042C62846824EA0604E8
:101260008460446824EA02024260C268013322EAD0
:101270000606102BC66095D103B0BDE8F08F0024A0
:10128000B9E70CFA04F4B6E7022707FA04F4B2E768
:101290000AFA04F4AFE700BF00040240000802406D
:1012A000000C02400010024000000240003C0140DF
:1012B0000369194214BF01200020704702B90904D4
:1012C00081617047436931EA030308BF0904816102
:1012D000704700BF82B04FF480330193019B0B43F2
:1012E0000193019BC361C161019BC361C369019308
:1012F000C06980F48030C0F3004002B0704700BF86
:10130000704700BF044A5169014200D1704708B5D7
:101310005061FFF7F5FF08BD003C0140026811690C
:101320002DE9F843C568836821F4405104462943F8
:1013300000691161D16865690343E06921F41641D0
:101340002B4321F00C0103430B43D3605369A16984
:1013500023F440730B43B0F5004F53619B4B00F0F7
:101360009A809A4259D003F580639A4255D002F090
:1013700079F8974F636800EB800000EB80009B00DA
:10138000B0FBF3F3A7FB03235B091D0102F06AF82E
:10139000666800EB800000EB8000B600B0FBF6F65C
:1013A00002F060F8636800EB800000EB80009B00B7
:1013B000B0FBF3F3A7FB03235B094FF0640909FBC0
:1013C00013631B013233A7FB03235B0903F0F00611
:1013D00002F048F8626800EB800000EB80009300A8
:1013E000B0FBF3F802F03EF8D4E9002300EB8000F4
:1013F00000EB80009B00B0FBF3F3A7FB03135B093A
:1014000009FB13831B013233A7FB0313C3F34313FD
:1014100033432B449360BDE8F88302F033F86C4FFC
:10142000636800EB800000EB80009B00B0FBF3F3EF
:10143000A7FB03235B091D0102F024F8666800EB9B
:10144000800000EB8000B600B0FBF6F602F01AF860
:10145000636800EB800000EB80009B00B0FBF3F3BF
:10146000A7FB03234FF064095B0909FB13631B010E
:101470003233A7FB03235B0903F0F00602F002F806
:10148000626800EB8000930000EB8000B0FBF3F893
:1014900001F0F8FFA8E79A4259D003F580639A4219
:1014A00055D001F0DFFF4A4F636800EB800000EB8E
:1014B00080005B00B0FBF3F3A7FB03235B091E0175
:1014C00001F0D0FF656800EB800000EB80006D004C
:1014D000B0FBF5F501F0C6FF636800EB800000EBA0
:1014E00080005B00B0FBF3F3A7FB03235B094FF025
:1014F000640909FB1353DB003233A7FB03231B09E9
:1015000003F4F87501F0AEFF626800EB800000EBB9
:1015100080005300B0FBF3F801F0A4FFD4E90023EE
:1015200000EB800000EB80005B00B0FBF3F3A7FB57
:1015300003135B0909FB1383DB003233A7FB03139F
:10154000C3F3421333442B449360BDE8F88301F0A6
:1015500099FF1F4F636800EB800000EB80005B0089
:10156000B0FBF3F3A7FB03235B091E0101F08AFF25
:10157000656800EB800000EB80006D00B0FBF5F5C6
:1015800001F080FF636800EB800000EB80005B00EF
:10159000B0FBF3F3A7FB03234FF064095B0909FBDE
:1015A0001353DB003233A7FB03231B0903F4F87545
:1015B00001F068FF626800EB8000530000EB8000E0
:1015C000B0FBF3F801F05EFFA8E700BF0010014098
:1015D0001F85EB51704700BF60B338B590F83930C4
:1015E000044603F0FF0203B32268242384F8393051
:1015F000D36823F40053D3602046FFF78FFE23689F
:101600001A6922F490421A615A6922F02A025A6138
:10161000DA680025202142F40052DA60E56384F89C
:10162000391084F83A10284638BD80F83820FEF783
:10163000C7FFD9E70120704780B338B590F839303B
:10164000044603F0FF0223B32268242384F83930D0
:10165000D36823F40053D3602046FFF75FFE23686E
:101660001A6922F490421A615A6922F022025A61E0
:101670005A6942F008025A61DA680025202142F4D2
:101680000052DA60E56384F8391084F83A1028468D
:1016900038BD80F83820FEF793FFD5E7012070476A
:1016A000002838D038B590F839300D46044603F09C
:1016B000FF025BB32268242384F83930D36823F413
:1016C0000053D3602046FFF729FE23681A6922F4ED
:1016D00000621A615A6922F02A025A611A6942F4B8
:1016E00080421A611A6922F020021A6119690D43B9
:1016F0001D61DA680025202142F40052DA60E563BA
:1017000084F8391084F83A10284638BD80F838201B
:10171000FEF756FFCEE70120704700BF00283DD0FE
:1017200070B590F8393016460D46044603F0FF02B6
:10173000002B2ED02268242384F83930D36823F478
:101740000053D3602046FFF7E9FD23681A6922F4AD
:1017500090421A615A6922F02A025A611A6922F0EB
:101760000F021A6119690D431D61DA6822F40062E3
:10177000DA60DA681643DE60DA680025202142F478
:101780000052DA60E56384F8391084F83A1028468C
:1017900070BD80F83820FEF713FFCBE701207047BB
:1017A000704700BFA8B10268242310B580F8393013
:1017B000D36823F400530446D360FEF73FFF0023B1
:1017C000E36384F8383084F8393084F83A301846C6
:1017D00010BD0120704700BF2DE9F041044690F88C
:1017E000390020287CD10E46002955D01546002A04
:1017F00052D0984694F83830012B71D00023E3631F
:101800000122212384F8393084F8382004F0A6FB23
:10181000E584E38CA5849BB225680746A3B1E28CDE
:10182000A168013A92B2B1F5805FE28426D0B8F1A6
:10183000FF3F34D12B681806FCD516F8013B6B60CE
:10184000E38C9BB2002BEAD1B8F1FF3F4BD12B6860
:101850005A06FCD52023002084F8393084F838005B
:10186000BDE8F0812B681B060ED4B8F1000F22D022
:1018700004F074FBC01B804525681CD3B8F1FF3F02
:10188000F0D12B681A06FCD533882269C3F308030C
:101890006B601ABB0236D3E70120BDE8F0812B68EC
:1018A0001906CAD4B8F1000F05D004F057FBC01BCD
:1018B00080452568BBD2EB6823F4D073EB606B697D
:1018C000202223F0010300216B6184F8392084F881
:1018D000381084F83A200320BDE8F0810136AFE7E4
:1018E0000220BDE8F0812B685B06B3D4B8F1000F8D
:1018F000E1D004F033FBC01B80452568A4D2DAE7B1
:10190000F8B5044690F83A00202873D10D46002916
:101910004ED01746002A4BD01E4694F83830012B83
:1019200068D00023E3630122222384F83A3084F84C
:10193000382004F013FBE785E38DA7859BB20746AB
:10194000C3B1E28DA368013A92B2B3F5805FE2853C
:1019500020D0701C23682DD11A689106FCD522690D
:101960005B680AB103F07F0305F8013BE38D9BB28E
:10197000002BE6D12023002084F83A3084F8380088
:10198000F8BD1A6892060BD4F6B104F0E7FAC01B52
:10199000864218D3701C2368F3D11A689106FCD5CF
:1019A00022695B6812BBC3F3080325F8023BDDE73D
:1019B0000120F8BD1A689206D1D42EB104F0CEFAF7
:1019C000C01B8642C5D22368DA6822F4D072DA607E
:1019D0005A69202122F0010200255A6184F8391049
:1019E00084F8385084F83A100320F8BDDBB225F8AB
:1019F000013BBBE70220F8BD90F83930202B1AD10B
:101A0000B9B1B2B190F83830012B14D030B4002302
:101A10000568C284212480F83830C36380F83940D7
:101A2000EC68016244F0800482841846EC6030BCAB
:101A30007047012070470220704700BF90F83A308D
:101A4000202B22D1F9B1F2B190F83830012B1CD003
:101A500030B400230468C285222580F83830C3637F
:101A600080F83A50E568828545F480758162E560CA
:101A7000626942F001026261E26842F020021846A7
:101A8000E26030BC7047012070470220704700BF01
:101A9000F8B5044690F8390020282BD141B33AB369
:101AA00094F83800012825D0E284A284206B2668AF
:101AB0002162002513462122E563012784F839209D
:101AC0000D4A84F83870C2630C4A02640C4A0565FA
:101AD000C264321D00F026FF23686FF040021A60D6
:101AE00084F838505A6942F0800228465A61F8BD9D
:101AF0000120F8BD0220F8BD151E0008451E000893
:101B0000291F000890F83A30202B3BD1002937D00C
:101B1000002A35D0F0B590F83830012B83B0044658
:101B200032D0406BA162A285002513460A462221CD
:101B3000E563012784F83A101549266884F838705F
:101B4000C1631449016414490565C164311D00F085
:101B5000E9FE236801951A6801925A68019284F897
:101B60003850019ADA6842F48072DA605A693A436E
:101B70005A615A69284642F040025A6103B0F0BDEA
:101B80000120704702207047022003B0F0BD00BF63
:101B9000551E0008191F0008291F000890F838304A
:101BA000012B30D00122036880F83820596990F861
:101BB0003920212A09D0596990F83A20222A0FD0D9
:101BC000002380F83830184670470906F3D55A6963
:101BD00022F080025A61596990F83A20222AEFD106
:101BE0004A06EDD5DA6822F48072DA605A6922F08A
:101BF00001025A615A6922F040025A61002380F8BA
:101C00003830184670470220704700BF90F83830CF
:101C1000012B2FD090F839300122212B80F8382069
:101C200004D10268536943F08003536190F83A305D
:101C3000222B04D0002380F838301846704782B039
:101C40000368002201921A6801925A680192019A6F
:101C5000DA6842F48072DA605A6942F001025A612D
:101C60005A6942F040025A61002380F83830184621
:101C700002B070470220704710B50368596990F8A8
:101C80003920212A044606D0596994F83A20222A9C
:101C900018D0002010BD0906F6D55A69006B22F055
:101CA00080025A6110B100F07FFE2368DA682021BB
:101CB00022F0C002DA6084F83910596994F83A20A9
:101CC000222AE6D14A06E4D55A69606B22F0400226
:101CD0005A6110B100F068FE2368DA6822F490724D
:101CE000DA605A69202122F001025A6184F83A1020
:101CF000002010BD0368DA6822F4F07210B5DA60D3
:101D00005A6922F001025A615A69110604460BD53C
:101D10005A69006B22F080025A6128B100230365E2
:101D200000F042FEC8B923685A6952060AD55A69BA
:101D3000606B22F040025A6120B10023036500F07D
:101D400033FE98B900232022E384E385E36384F81B
:101D50003A2084F83920184610BD206B01F090F825
:101D60002028E0D11023E363032010BD606B01F055
:101D700087F82028E6D1F5E70368DA6822F0C00288
:101D800010B5DA605A69120604460AD55A69006B22
:101D900022F080025A6120B10023036500F004FEA6
:101DA00028B900202023E08484F8393010BD206B4E
:101DB00001F066F82028F4D11023E363032010BD5E
:101DC0000368DA6822F4907210B5DA605A6922F07A
:101DD00001025A615A69520604460AD55A69406B93
:101DE00022F040025A6120B10023036500F0DCFDBF
:101DF00028B900202023E08584F83A3010BD606BBC
:101E000001F03EF82028F4D11023E363032010BD35
:101E1000704700BF08B50368806B1B6813F48073BC
:101E20000AD10268C384536923F080035361D368E5
:101E300043F04003D36008BDFFF7EAFF08BD00BFD1
:101E4000704700BF08B5806BFFF7FAFF08BD00BF01
:101E5000704700BF08B50368806B1B6813F480737C
:101E600010D10268C385D36823F48073D3605369AB
:101E700023F0010353615369202123F04003536190
:101E800080F83A10FFF7E4FF08BD00BF08B583688B
:101E9000B3F5805F17D0036973B10368826A5B682A
:101EA000511C03F07F0381621370C38D013B9BB211
:101EB000C3859BB1002008BD836A0268591C526823
:101EC00081621A70F1E70269836ADAB902685268BE
:101ED000C2F3080223F8022B8362E6E70368DA689C
:101EE00022F02002DA60DA6822F48072DA605A693D
:101EF000202122F001025A6180F83A10FFF7A8FF72
:101F0000002008BD02685268D2B223F8012B836218
:101F1000CBE700BF704700BF08B5806BFFF7FAFF43
:101F200008BD00BF704700BF08B5806B03685969E2
:101F300090F83920212A0BD0596990F83A20222AAA
:101F400016D0C36B43F01003C363FFF7EBFF08BD6C
:101F50000906F1D50022C284DA68202122F0C002ED
:101F6000DA6080F83910596990F83A20222AE8D1CD
:101F70004A06E6D50022C285DA6822F49072DA6059
:101F80005A69202122F001025A6180F83A10D8E7FC
:101F900003681A6870B51607DD68596904460CD1E4
:101FA000960601D5A9064DD4100601D5290650D4B0
:101FB000560601D5680668D470BD01F0010105F42C
:101FC00090700843F0D0D60705D5E80503D5E06B3F
:101FD00040F00100E063560729D561B1E16B90073D
:101FE00041F00201E16340F18280E16B41F00401C4
:101FF000E163110721D4E16B0029DDD0920609D5F8
:10200000AE0607D594F83A20222A03D12046FFF7DE
:102010003DFF23685A69E56B02F0400205F00805B0
:1020200015433DD12046FFF77DFFE56370BD960760
:1020300056D41007DFD50029DDD0E16B41F008014F
:10204000E163D8E790F83A30222BB5D1BDE8704073
:102050001CE794F83920212AAED1A268B2F5805F3E
:10206000226A47D0511C216212785A60E28C013AF0
:1020700092B2E284002A9FD1DA6822F08002DA600C
:10208000DA6842F04002DA6070BDDA68202122F09E
:102090004002DA60204684F83910FFF7B9FE70BDBF
:1020A000DA6822F49072DA605A69202122F0010283
:1020B0005A6184F83A105A69550614D55A69606B0A
:1020C00022F040025A6170B1104B036500F0B4FC7D
:1020D00000283FF471AF606BBDE87040036D184796
:1020E000002982D187E72046FFF71CFF70BD11074A
:1020F000A3D480E711882069C1F30801596010B9A1
:1021000002322262B2E701322262AFE711210008F7
:1021100008B5806B0023C385C384FFF703FF08BDA8
:10212000704700BF0368DA6822F4F07210B5044605
:10213000006BDA605A6922F001025A6128B15A69CB
:1021400012F0800218BF214A0265616B29B15A69F9
:1021500012F0400218BF1E4A0A655A6912060BD5D2
:102160005A6922F080025A6130B100F065FC00B378
:10217000226B2368002111655A6952060BD55A69F2
:10218000606B22F040025A6128B100F055FC70B13A
:10219000636B00221A6500232022E3842046E38536
:1021A000E36384F8392084F83A20FFF7B9FF002070
:1021B00010BD23685A695106F9D55A69606B22F03F
:1021C00040025A610028E0D1F1E700BF0122000877
:1021D000D5210008806B08B5D0E90C3200211165CB
:1021E00013B11B6D03B108BD00232022C384C38536
:1021F000C36380F8392080F83A20FFF791FF08BDCB
:10220000806B08B5D0E90C230021116513B11B6D5B
:1022100003B108BD00232022C384C385C36380F8B3
:10222000392080F83A20FFF77BFF08BD704700BFD8
:102230000368DA6822F0C00210B5DA605A6912F059
:102240008002044618D05A69016B22F080025A615C
:1022500051B10D4B0B65084600F0EEFB10B1206B41
:10226000036D9847002010BD2023C18480F83930C9
:10227000FFF7DCFF002010BD2023C28480F8393036
:10228000FFF7D4FF002010BD8D22000808B5806B39
:1022900000222023C28480F83930FFF7C7FF08BD31
:1022A000704700BF0368DA6822F4907210B5DA60F4
:1022B0005A6922F001025A615A6912F0400204463A
:1022C00018D05A69416B22F040025A6151B10D4B4E
:1022D0000B65084600F0B0FB10B1606B036D9847CA
:1022E000002010BD2023C18580F83A30FFF7D8FFC9
:1022F000002010BD2023C28580F83A30FFF7D0FFC0
:10230000002010BD0923000808B5806B002220239F
:10231000C28580F83A30FFF7C3FF08BD90F8382037
:10232000012A12D003462422006810B483F8392011
:10233000C2682024002142F00102C26083F83940C3
:1023400083F83810084610BC70470220704700BF61
:1023500090F83820012A12D003462422006810B4D5
:1023600083F83920C2682024002142F00202C260B2
:1023700083F8394083F83810084610BC70470220B3
:10238000704700BF90F83820012A12D0034624225B
:10239000006810B483F83920C2682024002122F09C
:1023A0000202C26083F8394083F83810084610BC36
:1023B00070470220704700BF90F83820012A14D0DF
:1023C00003462422006810B483F83920C26822F042
:1023D0000C022024002142F00802C26083F8394038
:1023E00083F83810084610BC70470220704700BFC1
:1023F00090F83820012A14D003462422006810B433
:1024000083F83920C26822F00C022024002142F017
:102410000402C26083F8394083F83810084610BCC3
:1024200070470220704700BF90F8392090F83A00BA
:1024300010437047C06B70470749CA6803024FF6E4
:10244000FF0003F4E0630240134343F0BF6343F42F
:102450000033CB60704700BF00ED00E0194BDB6834
:10246000C3F3022330B4C3F10705042D03F10404C0
:1024700028BF0425062C19D9033B4FF0FF349C409C
:1024800022EA04024FF0FF34AC4021EA04019940F3
:10249000002841EA02010CDB00F1604000F56140D8
:1024A0000901C9B280F8001330BC704700221346FE
:1024B000E8E7054B00F00F0009010344C9B21976A3
:1024C00030BC704700ED00E0FCEC00E0002807DBCA
:1024D00000F01F01034A400901238B4042F82030DD
:1024E000704700BF00E100E000280DDB4309074909
:1024F0002033012200F01F0002FA00F041F823000F
:10250000BFF34F8FBFF36F8F704700BF00E100E054
:10251000BFF34F8F0549064BCA6802F4E0621343CC
:10252000CB60BFF34F8F00BFFDE700BF00ED00E0C1
:102530000400FA050138B0F1807F0DD2074B10B4CA
:10254000074C5860F02084F8230000220721104631
:102550009A6010BC196070470120704710E000E0DD
:1025600000ED00E0BFF35F8F044A0549536A002085
:1025700023F4803353624860704700BF00ED00E0F1
:1025800090ED00E0064B074A40F001005860536AA6
:1025900043F480335362BFF34F8FBFF36F8F7047A5
:1025A00090ED00E000ED00E0124943788B60027886
:1025B000EAB1436870B4CB60C37A057B847A867BCA
:1025C0001B0643EA05731343427BC57B43EAC443BE
:1025D00043EA8243447A027A43EA464343EA0543A4
:1025E00043EA042343EA420370BC0B617047CA60AC
:1025F0000A61704790ED00E0024BD868C0F30220FA
:10260000704700BF00ED00E0002830B423DB00F18C
:10261000604000F5614090F80003000901F00701F7
:10262000C1F10705042D01F1040428BF0425062C7F
:102630000FD903394FF0FF348C4020EA0404C8401E
:102640004FF0FF31A94020EA010010601C6030BC4F
:1026500070470024F4E7034C00F00F000444207E90
:102660000009DBE7FCEC00E0002809DB4309054931
:10267000403300F01F00012202FA00F041F823006D
:10268000704700BF00E100E000280BDB4309064A69
:10269000403300F01F0052F8233023FA00F000F01E
:1026A000010070470020704700E100E0002809DBCE
:1026B00043090549603300F01F00012202FA00F0CF
:1026C00041F82300704700BF00E100E000280BDB69
:1026D0004309064A803300F01F0052F8233023FAE2
:1026E00000F000F0010070470020704700E100E0BA
:1026F000044A136804280CBF43F0040323F00403C6
:102700001360704710E000E0704700BF08B5FFF7A6
:10271000FBFF08BDF8B5044603F020FC002C54D0A4
:1027200023680222002184F8341084F835201A68C6
:1027300022F0010205461A6005E003F00FFC431B7E
:10274000052B3BD823681A68D107F6D4D4E90126B3
:10275000D4E90350324361691F682A43D4E906650E
:1027600002430A43206A354932432A430243606ADE
:102770003940042841EA020129D019605A6922F03F
:1027800007021043DAB22E495861103AA1FB020148
:1027900009092C4823F47F73415CE16523F00303AE
:1027A0005F2A88BF04333F228A4001250021A365A8
:1027B0009A60616584F835500846F8BD03232022ED
:1027C000626584F835301846F8BD0120F8BDD4E9BB
:1027D0000B5028430143A26A1960586920F0070092
:1027E000104340F00400002DCCD07EB1B6F5005F60
:1027F00012D0022A03D9032AC4D1EA01C2D5012387
:102800004022626584F835301846F8BD012A11D09F
:1028100032F00202B6D1F0E7032AB3D801A151F891
:1028200022F000BFFF270008FB270008FF27000851
:1028300035280008B5F1C07FA4D1E0E73F8010F053
:10284000ABAAAAAAE0D60008002836D090F8352016
:10285000022A0346D0B232D01A681949D0B21038D1
:1028600070B4A1FB00611568164C090925F001053B
:10287000665C156000212124116051609160D16077
:102880001161546122F47F7222F003025F2888BF35
:1028900004323F240021B440DE65C3E90F11C3E9CF
:1028A0001111C3E913119A659460596583F83410C6
:1028B00083F83510084670BC704701207047704798
:1028C000ABAAAAAAE0D6000870B490F83440012C54
:1028D00025D090F835400125AC4280F8345005D021
:1028E000002380F8343070BC022070470468022650
:1028F000002580F8356045652568866825F48025C3
:10290000402E256063600BBFA260A160E160E260C1
:10291000236843F001032360002070BC704702204D
:1029200070BC7047F0B490F83440866D012C38D0FC
:1029300090F835400125AC4280F8345005D0002392
:1029400080F83430F0BC022070470468022700256C
:1029500080F8357045652568876825F48025402F07
:10296000256063600ABFA260A160E160C16D18BF0D
:10297000E2603F238B40026CB360236843F0160390
:102980002360636943F0800363611AB1236843F0F5
:1029900008032360236843F0010323600020F0BC98
:1029A00070470220F0BC704770B50446866D03F096
:1029B000D5FA94F83530022B06D00023802284F813
:1029C00034306265012070BD2368216C1A6822F0E2
:1029D00016021A605A6922F0800205465A6131B324
:1029E0001A6822F008021A601A6822F001021A60BE
:1029F00005E003F0B3FA431B052B0FD823681B68CF
:102A000013F00103F5D1E16D3F228A400121B2604C
:102A100084F8343084F83510184670BD2022002325
:102A20000320626584F8343084F8350070BDA26CF0
:102A3000002AD5D1D8E700BF90F83530022B03D05B
:102A400080234365012070470268052380F83530F4
:102A5000136823F001031360002070472DE9F04F45
:102A6000044683B01546019103F078FA94F83530A6
:102A7000022B08D080220023626584F834300120C4
:102A800003B0BDE8F08F23681B68D9055ED4019BB5
:102A9000E16D0646002B60D04FF0100B0BFA01FBE6
:102AA000D4F858A0DAF800301BEA030F3AD16A1CB8
:102AB00067D0002D56D04FF008094FF001080427C9
:102AC0002DE003F04BFA801B85424ED3E16DDAF81E
:102AD000003009FA01FC13EA0C0F08FA01F007FABA
:102AE00001F207D0D4F854E04EF0010EC4F854E0DF
:102AF000CAF808C0034207D0D4F854C04CF0020C06
:102B0000C4F854C0CAF80800134205D0606D40F004
:102B100004006065CAF808201BEA030F02D1636D48
:102B2000DB07CED5636D13B1636DDB0758D4019A13
:102B3000002A4ED1302303FA01F10123CAF808100C
:102B4000104684F8342084F8353099E74FF48073C8
:102B50000120636503B0BDE8F08F4FF0200B0BFA46
:102B600001FB9DE7636DDA07DCD4202100220123FD
:102B70000320616584F8342084F8353003B0BDE863
:102B8000F08F0826012504208E408D4088401CE0EF
:102B9000DAF800301E4205D0626D42F00102626533
:102BA000CAF808602B4205D0626D42F002026265ED
:102BB000CAF80850034205D0626D42F00402626513
:102BC000CAF808001BEA030FACD1636DDF07A9D474
:102BD000DEE7102303FA01F1CAF8081000204FE7DE
:102BE0002046FFF7E1FEE26D3023934000210122F1
:102BF000CAF80830104684F8341084F835203FE7CE
:102C0000F0B583B00023876D0193C36D3D686549BE
:102C100008229A402A420E68044603D001680868D8
:102C2000400778D401229A402A4203D0216849699A
:102C300008066AD404229A402A4203D0216809680F
:102C400089075CD410229A402A4203D02168086880
:102C5000000741D420229A402A4214D021680868F3
:102C6000C00610D5BA6094F83520052A63D00B68E9
:102C700013F4802F0B687ED0190340F18980E36B39
:102C80000BB120469847636D23B3636DDA071AD5FD
:102C900022684549052384F835301368A1FB0616E0
:102CA00023F001031360B60A02E01368DB0704D5C2
:102CB000019B0133B3420193F7D90022012384F829
:102CC000342084F83530E36C23B1204603B0BDE8EE
:102CD000F040184703B0F0BDBA600A6812F4802FC4
:102CE0000A6822D1D20503D40A6822F008020A60D9
:102CF000226C002AAED020469047E36DAAE7BA6066
:102D0000626D42F0040262659CE7BA60626D42F057
:102D1000020262658EE7086820F004000860BA606D
:102D2000626D42F0010262657CE71103E0D5A26C9E
:102D3000002AE0D18EE70A68206C22F016020A60B1
:102D40004A6922F080024A6138B30A6822F0080218
:102D50000A603F22216D02FA03F300200122BB60CA
:102D600084F8340084F835200029B3D0204603B01D
:102D7000BDE8F040084713F4807380D10A68012051
:102D800022F010020A6084F8343084F8350076E7C7
:102D9000636C002B7FF475AF75E7A26C002AD4D169
:102DA000D7E700BF00000020B5814E1B034690F816
:102DB000340001280FD093F83500012804D00120F9
:102DC000002283F834207047052918D8DFE801F085
:102DD00014110E0B0805022070471A650020EFE75A
:102DE000DA640020ECE79A640020E9E75A640020E6
:102DF000E6E71A640020E3E7DA630846E0E700202C
:102E0000DEE700BF90F83420012A17D010B490F804
:102E1000352003460124A242D0B283F8344005D0C5
:102E20002046002283F8342010BC70470629F8D8C9
:102E3000DFE801F01D1A1714110E0600022070477A
:102E40000020C3E90F00C3E91100C3E91300E8E75C
:102E500000201865E5E70020D864E2E700209864C8
:102E6000DFE700205864DCE700201864D9E700227F
:102E70000846DA63D5E700BF90F83500704700BF19
:102E8000406D704700207047002800F060812DE9F8
:102E9000F0410368DD0782B004462FD5AD498A684A
:102EA00002F00C02042A00F0EC808A6802F00C02A6
:102EB000082A00F0E2806368B3F5803F00F0EB8001
:102EC000B3F5A02F00F05081A24D2A6822F4803281
:102ED0002A602A6822F480222A60002B40F0E080D9
:102EE00003F03CF8064605E003F038F8801B642840
:102EF00000F200812B689B03F6D423689F0728D536
:102F0000944A916811F00C0F00F09A80916801F0DA
:102F10000C01082900F09080E368002B00F0068186
:102F20008D4B8C4E01221A6003F018F8054605E01F
:102F300003F014F8401B022800F2DC803368980785
:102F4000F6D53368226923F0F80343EAC2033360FD
:102F500023681A075CD458073AD57E4A136C13F0DD
:102F6000805340F088800193136C43F080531364C6
:102F7000136C03F080530193019B0125774E336856
:102F8000D90540F1A780A368012B00F0B780052B7D
:102F900000F026816F4E326F22F001023267326FED
:102FA00022F004023267002B40F0AD8002F0D6FF21
:102FB00041F28838074605E002F0D0FFC01B4045CB
:102FC00000F29880336F9807F6D4002D40F0D68039
:102FD000A369CBB15F4DAA6802F00C02082A36D073
:102FE000022B5F4B4FF000021A6000F0CD8002F020
:102FF000B5FF2C46054604E002F0B0FF401B022856
:1030000078D823689B01F7D4002002B0BDE8F08196
:10301000636903B3534B4F4E01221A6002F09EFFC7
:10302000054604E002F09AFF401B022862D8736F45
:103030009B07F7D523688EE7526856023FF56CAFC1
:10304000444A1268950739D5E268012A36D0012032
:1030500002B0BDE8F081434A3E4E136002F07EFFAD
:10306000054604E002F07AFF401B022842D8736F45
:103070009F07F7D4DEE7002580E74A6850027FF516
:103080001AAF344A126891037FF538AF6268002A9C
:103090007FF434AFDBE72F4A136843F480331360C7
:1030A00002F05CFF2B4E054604E002F057FF401B88
:1030B00064281FD833689A03F7D51EE7254920698D
:1030C0000A6822F0F80242EAC0020A601A077FF595
:1030D00042AF9DE7336843F48073336002F03EFFF4
:1030E00007463368DA053FF54EAF02F037FFC01BE5
:1030F0000228F6D9032002B0BDE8F081154A136F0B
:1031000043F00103136702F029FF124F064641F214
:10311000883804E002F022FF801B4045EAD83B6F6C
:103120009B07F7D5002D3FF453AF27E00A4A094E1D
:10313000136002F013FF054604E002F00FFF401B8E
:103140000228D7D833689907F7D4236801E701200C
:10315000704700BF00380240000047420070004046
:1031600060004742800E4742224B1A6842F4802298
:103170001A601A6842F480321A6091E71D4A136C93
:1031800023F08053136423E702F0E8FE064604E0D0
:1031900002F0E4FE801B0228ACD82B689901F7D41A
:1031A000D4E90736D4E90902E16A334343EA8013DC
:1031B000520843EA0163013A0F490E4E43EA0243C3
:1031C00001226B600A6002F0C9FE044604E002F0CE
:1031D000C5FE001B02288DD833689A01F7D513E786
:1031E000044B1A6F42F004021A671A6F42F0010290
:1031F0001A6788E7003802406000474270B50D4604
:1032000088B0144608BB234E0090326B42F0010296
:103210003263326B034602F00102009206934FF4D0
:1032200080720223CDE9022300991B480022032368
:1032300002A9CDE90423FDF7AFFEB26822F0EC62EB
:103240002A432243B26008B070BD124E13480022D8
:103250000192336B43F004033363336B069203F044
:10326000040301934FF400720223CDE90223019974
:103270000022032302A9CDE90423FDF78DFEB368E4
:1032800023F0784343EA050141EAC401B16008B084
:1032900070BD00BF0038024000000240000802403C
:1032A000014B01221A6070474C004742014B00223B
:1032B0001A6070474C004742174908B58B6803F005
:1032C0000C03042B1BD0082B17D14A684B6813F44E
:1032D000800302F03F0214D149681048C1F38811FD
:1032E000A1FB000103F086FA0B4B5B68C3F30143BB
:1032F00001335B00B0FBF3F008BD084808BD084887
:1033000008BD4B680648C3F38813A3FB00010023E4
:1033100003F070FAE8E700BF003802400024F40030
:1033200000127A00002800F08680474A136803F0F4
:103330000F038B422DE9F0410D46044609D2CBB272
:103340001370136803F00F038B4202D00120BDE815
:10335000F0812368980714D5590704D53B498A683A
:1033600042F4E0528A601A0704D538498A6842F468
:1033700060428A603549A0688A6822F0F002024300
:103380008A60DF0721D56268012A56D0931E012B7F
:103390002E4B1B684CD99907D8D52C4EB36823F017
:1033A00003031343B36002F0D9FD41F288380746A6
:1033B00004E002F0D3FDC01B404543D8B368626807
:1033C00003F00C03B3EB820FF3D11F4A136803F031
:1033D0000F03AB4206D9EBB21370136803F00F036F
:1033E000AB42B3D123685A0706D51849E0688A680A
:1033F00022F4E05202438A601B0707D5134A216971
:10340000936823F4604343EAC1039360FFF754FFDA
:103410000E4A0F4C92680F49C2F303120346A25C96
:103420000F20D3400B6002F051FD0020BDE8F08179
:103430009801B2D48AE701207047044B1B689E03B1
:10344000ABD483E7032082E7003C0240003802400F
:10345000C8D6000800000020014B1868704700BF64
:1034600000000020044B054A9B680549C3F38223F2
:103470000868D35CD840704700380240D8D60008AE
:1034800000000020044B054A9B680549C3F3423302
:103490000868D35CD840704700380240D8D600088E
:1034A000000000200F22244B02601A68510334D51B
:1034B0004FF4A0234360204B1A6802F00102C2605F
:1034C0001A68C2F3C40202611A6F52072DD5052390
:1034D0008360194B5A6F02F0010242611A6812F0C0
:1034E000807F14BF0222012282615A6802F48002A6
:1034F000C2615A6802F03F0202625A68C2F388123F
:1035000042625A6802F4403202F58032D20B826283
:103510005B68C3F30363C36270471B6813F48033B3
:1035200018BF4FF480334360C5E71B6F13F00103EE
:1035300018BF01238360CCE7003802400D4B0F22F7
:1035400002609A6802F0030242609A6802F0F00298
:1035500082609A6802F4E052C2609B68DB0810B493
:1035600003F4E053044C0361236810BC03F00F0321
:103570000B60704700380240003C0240704700BFBB
:1035800008B5054BDB681B0600D408BDFFF7F6FF46
:10359000024B80221A7008BD003802400E380240EB
:1035A000704700BF002800F0A080F8B5056C044605
:1035B0003DB1236CDB060CD5002384F83C300120A0
:1035C000F8BDFFF7EDFF6564236C84F83C50DB0623
:1035D000F2D4226C48492368484D22F4885222F0E4
:1035E000020242F0020222644A6822F440324A6037
:1035F0004A68606802434A6058682169A768E668BB
:1036000020F4807058605A6842EA01225A60586873
:1036100020F0407058605968A06A39435960996831
:1036200021F4006199609A68A84242EA06029A6011
:1036300052D09968E56A21F0706199609A681043E8
:103640009860996821F0405199609A682A439A607D
:103650009A6822F002029A609A68217E42EA410248
:103660009A6094F82020002A41D05A68616A42F496
:1036700000625A605A6822F460425A605A680139FE
:1036800042EA41325A60DA6AE069656922F47002FE
:10369000DA62D96A013841EA0051D962996821F4A5
:1036A00000719960996894F8302041EA422199604C
:1036B000996821F4806199609A68002042EA852225
:1036C0009A606064236C23F0030343F001032364D6
:1036D000002384F83C30F8BD9A6822F070629A604A
:1036E0009A6822F040529A60B2E7012070475A6807
:1036F00022F400625A60C6E7002301400100000F77
:10370000704700BFD0B1026C38B542F002020368C6
:1037100002649A6822F001029A609D6815F0010522
:10372000044603D0002084F83C0038BDFFF7E8FFD2
:10373000002084F83C006564256438BD0120704792
:1037400010B490F83C3083B00022012B019253D08A
:103750000123026880F83C309368DB0714D4284BBF
:10376000284C1B689168A4FB03439B0C03EB4303A9
:1037700041F0010191600193019B2BB1019B013B41
:103780000193019B002BF9D19368DC0725D5036CCD
:1037900023F4E06323F0010343F48073036453686C
:1037A000590505D5036C23F4405343F48053036457
:1037B000036C13F480531CBF436C23F00603436473
:1037C0000024114B80F83C406FF0220111605B68CF
:1037D000DB0606D00D4B9A4203D0002003B010BC8C
:1037E0007047906810F04050F7D1936843F08043E1
:1037F000936003B010BC7047022003B010BC704748
:103800000000002083DE1B43002301400020014014
:1038100090F83C30012B14D003689A6822F0010222
:103820009A609B68DB0707D4036C23F4885323F06A
:10383000010343F001030364002380F83C30184681
:1038400070470220704700BF03689A6870B50D4644
:103850005105044602D59B68DA053CD402F07EFB94
:1038600006466B1C226824D113689807FCD56FF0BC
:1038700012031360236C43F400732364936813F002
:10388000405F14D1207E90B9D36A13F4700F02D038
:1038900093685A050BD4236C23F480732364236C40
:1038A000DB0404D4236C43F00103236470BD0020C7
:1038B00070BD13689907DAD425B102F04FFB801B65
:1038C000A842CED9236C002243F0040384F83C20A4
:1038D0002364032070BD036C002243F0200380F8B2
:1038E0003C200364012070BDF8B505460C46164621
:1038F00002F034FB0746731C296812D10B6834EAC6
:103900000303FBD1012C2B6C1ED043F480632B648A
:103910006B6C6FF0200243F002036B6400200A60BE
:10392000F8BD0B6834EA0303ECD026B102F016FBB5
:10393000C01BB042DFD92B6C002243F0040385F892
:103940003C202B640320F8BD6FF0010243F4803368
:103950002B6400200A60F8BD10B490F83C3083B0AE
:103960000022012B019259D00123026880F83C30DB
:103970009368DB0714D42B4B2B4C1B689168A4FB7A
:1039800003439B0C03EB430341F00101916001935E
:10399000019B2BB1019B013B0193019B002BF9D1B2
:1039A0009368DC072BD5036C23F4E06323F0010359
:1039B00043F4807303645368590505D5036C23F4FD
:1039C000405343F480530364036C13F480531CBFCF
:1039D000436C23F00603436400216FF0220380F858
:1039E0003C1013605368114943F0806343F0200397
:1039F00053604B68DB0606D00D4B9A4203D0002083
:103A000003B010BC7047906810F04050F7D1936835
:103A100043F08043936003B010BC7047022003B0B2
:103A200010BC70470000002083DE1B4300230140D0
:103A30000020014090F83C30012B1DD0036801228A
:103A400080F83C209A6822F001029A609A68D207B6
:103A50000DD45A6822F0806222F020025A60036C72
:103A600023F4885323F0010343F00103036400238C
:103A700080F83C301846704702207047F0B5054684
:103A800090F83C0083B000240128019468D02E688F
:103A90001346012285F83C20B268D40714D4324A78
:103AA000324C1068B268A4FB0040800C42F0010266
:103AB00000EB4000B2600190019A2AB1019C013CE8
:103AC000019401980028F9D1B268D0073BD5286C41
:103AD00020F4E06020F0010040F4807028647268F7
:103AE000520505D52A6C22F4405242F480522A64D1
:103AF0002A6CA86B1E4C12F480521CBF6A6C22F018
:103B000006026A6400271B4A85F83C70C46302649D
:103B1000194CC4646FF022023260726842F0806215
:103B20007260B46844F480740A46B46006F14C01D3
:103B3000FEF7F8FE114B5B6813F01F0F2B6805D0E2
:103B40000F4A934202D0002003B0F0BD986810F0F5
:103B50004050F8D19A6842F080429A6003B0F0BDBC
:103B6000022003B0F0BD00BF0000002083DE1B4335
:103B70004D3D0008F53B0008353D0008002301409D
:103B80000020014090F83C30012B29D0036801222D
:103B900010B580F83C209A6822F001029A609A6879
:103BA000D207044604D5002384F83C30002010BD21
:103BB0009A68806B22F480729A60FEF7F5FE2268A4
:103BC000536823F080635360236C23F4885323F0FD
:103BD000010343F001032364002384F83C3010BD4B
:103BE000022070470368D86C704700BF704700BF61
:103BF000704700BF08B5806BFFF7FAFF08BD00BF34
:103C0000704700BF704700BF38B503681A6859682D
:103C10000446900701D58A0653D41A68596852079A
:103C200001D50D061BD41A685968D00701D54A067C
:103C300006D41A685968900601D54A0169D438BD7E
:103C40001A68D507F5D5236C43F4803323642046E6
:103C5000FFF7D6FF23686FF001021A60E9E7226CD4
:103C6000D00603D4226C42F4005222649A6812F403
:103C7000401F1ED19A6B12F4401F02D09A68510562
:103C800017D45A68520514D49A6812F0405F10D1C4
:103C9000227E72B95A6822F080025A60236C23F4A3
:103CA00080532364236CDD0503D4236C43F00103AC
:103CB0002364204602F08AFC23686FF00C021A602D
:103CC000B1E7226CD50603D4226C42F40072226460
:103CD0009A6812F0405F14D1227E92B9DA6A12F427
:103CE000700F23D15A6822F020025A60236C23F40B
:103CF00080732364236CD90403D4236C43F0010341
:103D000023642046FFF772FF23686FF012021A60E7
:103D100083E7626C6FF0200542F002026264204685
:103D20001D60FFF76FFF23681D6038BD9A6850055E
:103D3000E7D4D7E7806B08B540230364436C43F0B6
:103D400004034364FFF75EFF08BD00BF836B1A6C7A
:103D500012F0500F10B51A6C23D142F4007219689A
:103D60001A648A6812F0405F17D11A7EAAB9CA6A2B
:103D700012F4700F02D08A6850050ED44A6822F0FF
:103D800020024A601A6C22F480721A641A6CD10400
:103D900003D41A6C42F001021A641846FFF726FF9A
:103DA00010BDD20604D49B6BBDE81040DB6C1847F5
:103DB0001846FFF727FF10BDF0B490F83C3082B0F2
:103DC0000022012B019200F09480012380F83C3006
:103DD0000D68092D29D804688B68226905EB450711
:103DE0000726BE4022EA060222612269BB40134335
:103DF00023614B68062B2E462CD803EB8303626BA2
:103E0000053B1F21994022EA01026263626B06FAB8
:103E100003F313436363394B9C422FD0002380F894
:103E20003C30184602B0F0BC704704688B68E76805
:103E3000AEB206EB46021E3A4FF0070C0CFA02FC3B
:103E400027EA0C07E760E76893403B43E3604B6871
:103E5000062BD2D90C2B37D803EB8303A3F1230114
:103E60001F22236B8A4023EA02032363236B06FA93
:103E700001F11943214B21639C42CFD1122D32D045
:103E8000A5F11003012BC9D81D4A5368102D43F426
:103E900000035360C2D11B4B02F146721B6802F54E
:103EA0002E3202F28332A2FB03239B0C03EB83032B
:103EB0005B000193019B002BB0D0019B013B019360
:103EC000019B002BF9D1A9E703EB8302413AE36A96
:103ED0001F21914023EA0103E362E36A06FA02F13B
:103EE0001943E16297E7064A536843F4800353603D
:103EF00094E7022002B0F0BC704700BF00200140F0
:103F0000002301400000002090F83C30012B2AD013
:103F100030B4012380F83C300B7C012B036802464F
:103F200058680CBF40F0400020F0400058605868CE
:103F300020F4400020F40070D1E900455860586832
:103F400020438C6858605D629C625868898920F0C3
:103F50001F005860586800240143596082F83C40B3
:103F6000204630BC70470220704700BF006C70478D
:103F7000406C7047134B144A1B68A2FB032382B0AA
:103F800064225B0A02FB03F30193026805E0019BD4
:103F9000013B019393689B0706D4019B002BF6D14C
:103FA000436D43F040034365136823F040031360FF
:103FB000536823F0E0035360D268072380F8513040
:103FC00002B0704700000020F119760503685A68B6
:103FD00022F080025A601A68072122F040021A601B
:103FE00080F85110704700BF704700BF002840D0D4
:103FF000F8B590F85130044603F0FF02002B33D09F
:10400000D4E90136D4E9035033436269E169A66A11
:104010002B4303431343206A2268A5690B43022103
:1040200084F8511017680343290C606A334305F480
:1040300000752B43B6F5005F27F0400701F004013F
:10404000176041EA0001136008BFE36A516008BFCE
:104050001361D369002123F400630125D3616165F5
:1040600084F851500846F8BD80F85020FFF7BCFF97
:10407000C6E70120704700BF704700BF90B10268DB
:10408000022310B580F85130136823F04003044632
:104090001360FFF7F1FF0020606584F8500084F89A
:1040A000510010BD012070472DE9F043044690F8FF
:1040B0005000012883B000F088801E46012384F858
:1040C00050308946904601F049FF94F85130012B59
:1040D0000746D8B209D002200122002384F85120DB
:1040E00084F8503003B0BDE8F083B9F1000FF3D08D
:1040F000B8F1000FF0D0A2682568C4F8309003230F
:1041000084F8513000236365B2F5004FA4F836807F
:10411000E387C4E91033A363A38708BF2B68A4F81F
:10412000348004BF43F480432B60A36AB3F5005F7F
:1041300075D02A68520603D42A6842F040022A60E9
:10414000E268B2F5006F44D06368002B00F089800C
:10415000B8F1010F00F08580E38E9BB2002B5CD09C
:10416000731C0ED073E0236B1B782B73E28E236BD2
:10417000013A92B2E286E28E013392B223634AB1EF
:104180002568AB689807EED401F0E8FEE38E9BB299
:10419000002BF5D1A36A2568B3F5005F03D12B6826
:1041A00043F480532B60711C67D1AB681A06FCD4B2
:1041B000A3682BB90193EB680193AB680193019B52
:1041C000606D003818BF012086E7022003B0BDE80B
:1041D000F0836268002A40F09280494631F8022B51
:1041E000EA60E28E2163013A92B2E286E28E92B2F6
:1041F000002AD1D0731C78D1AB68980740F1848035
:10420000226B32F8023BEB60E38E2263013B9BB2F0
:10421000E386E38E9BB2002BEED1A36ABCE72A684B
:1042200022F400522A602A6842F400522A6080E791
:10423000236B1B782B73E38E226B013B9BB2013205
:10424000E3862263E38E9BB2002BA3D02568AB6884
:104250009A07EDD401F082FEC01BB042F2D30320D6
:104260003AE799F800302B73E38E226B2568013B07
:104270009BB20132E38622636EE7AB681B0697D5DB
:1042800001F06CFEC01B864225688CD862686B68A2
:10429000B2F5827F23F0E0036B60A3683DD0A26A91
:1042A000B2F5005F07D12A6822F400522A602A681A
:1042B00042F400522A60012284F85120626D0020ED
:1042C00042F020022021626584F85000616570E7A9
:1042D000226B32F8023BEB60E38E2263013B9BB220
:1042E000E386E38E9BB2002B97D0AB689907EFD49F
:1042F00001F034FEC01BB042B1D22568F1E7B8F13D
:10430000010F7FF473AF68E701F028FEE38E2568A4
:104310009BB2002B7FF470AF7FE7B3F5004F02D064
:10432000B3F5806FBBD12A6822F040022A60B6E75D
:104330002DE9F047044690F8500082B001280A9E0B
:1043400000F0A2809846012384F850308A469146B6
:1043500001F004FE94F851706368012F0546F9B22C
:1043600012D0B3F5827F0AD00227012200233846FB
:1043700084F8512084F8503002B0BDE8F087A2687C
:10438000002AF1D10429EFD1BAF1000F00F08180A9
:10439000B9F1000F7DD0B8F1000F7AD094F8512018
:1043A000C4F83890042A1CBF052284F85120A26A60
:1043B000A4F83C800021B2F5005F6165C4E91011EA
:1043C000A4F83E802268C4F830A0A4F83480A4F891
:1043D000368007D1116821F400511160116841F451
:1043E000005111601168480603D4116841F0400182
:1043F0001160E168B1F5006F00F09880002B4AD0A1
:10440000B8F1010F47D0012719E0936813F00103B9
:104410000DD0E18F89B251B1A16BD2680A70E28FE1
:10442000A16B013A92B201311F46E287A16301F00C
:1044300095FD431BB34201D3701C55D12268E38E16
:104440009BB21BB9E38F9BB2002B4FD093689B07A5
:10445000DBD5E38E9BB2002BD7D0002FD5D0236BBA
:104460001B781373E38E226B013B9BB2E386E78ECE
:104470000132BFB2226327B9A36AB3F5005F00F02F
:10448000A68022680027C0E70227384602B0BDE8B0
:10449000F087012769E79AF800301373E38E216BE8
:1044A0002268013B9BB20131E3862163ABE7D4E98B
:1044B00000315A68B1F5827F22F0E0025A6000F0C4
:1044C000D180A26AB2F5005F07D11A6822F40052C7
:1044D0001A601A6842F400521A60012384F85130BD
:1044E000636D43F00203636503273EE7A36AB3F5F8
:1044F000005F7CD0976817F0100707D0636D4FF608
:10450000EF7143F00203636501279160701C75D160
:1045100093681906FCD4A368002B7FF426AF01939F
:10452000D368019393680193019B1EE7002B4AD146
:10453000514631F8023BD360E38E2163013B9BB2CD
:10454000E386012719E00027936813F001030CD0DC
:10455000E18F89B249B1A16BD26821F8022BE28FB9
:10456000A163013A92B21F46E28701F0F7FC401BBB
:10457000B04201D3721CB7D12268E38E9BB21BB943
:10458000E38F9BB2002BB1D093689907DCD5E38E03
:104590009BB2002BD8D0002FD5D0216B31F8023B35
:1045A000D360E38E2163013B9BB2E386E78EBFB20B
:1045B000002FC8D1A36AB3F5005FC4D1136843F4D8
:1045C00080531360C0E7B8F1010FBAD1B0E7226899
:1045D000136843F48053136017E79368DF070BD425
:1045E00001F0BCFC431B9E427FF661AF2268711C48
:1045F000F3D19368DB07FCD5D3687BE793681B0690
:1046000089D501F0ABFC401B864201D922687DE7C9
:10461000D4E900315A68B1F5827F22F0E0025A6095
:1046200014D0A26AB2F5005F07D11A6822F40052D2
:104630001A601A6842F400521A60012784F8517017
:10464000636D20221343636562658EE6A268B2F54E
:10465000004F02D0B2F5806FE3D11A6822F0400219
:104660001A60DEE7A268B2F5004F03D0B2F5806FA2
:104670007FF427AF1A6822F040021A6021E700BFDA
:104680002DE9F0434668B6F5827F83B00446914633
:104690001D46884600F0888094F85030012B00F0C9
:1046A0009080012384F8503001F058FC94F8517048
:1046B000012F0646F8B209D002200122002384F817
:1046C000512084F8503003B0BDE8F083B8F1000FFA
:1046D000F3D0B9F1000FF0D0A16A2268C4F8388095
:1046E000042384F85130B1F5005F4FF00003636597
:1046F000C4E91033A4F83E90A4F83C902363A38649
:10470000E3860BD1136823F400531360136843F45A
:1047100000531360E38F013B9BB2E387A368B3F5BB
:10472000004F03D1136823F48043136013685B06C2
:1047300003D4136843F040031360E368002B00F0D8
:104740009080E38F9BB293B16B1C4BD19368DF07D2
:1047500054D5A36BD16823F8021BE18FA363013901
:1047600089B2E187E38F9BB2002BEFD1A16AB1F54B
:10477000005F00F0AF806368B3F5827F00F0CC800B
:104780006F1C43D193681806FCD49368DB0606D5EA
:10479000636D4FF6EF7143F0020363659160606DE6
:1047A000003818BF012088E78368002B7FF474AFBE
:1047B00004260095134680F851600A46FFF7B8FDBD
:1047C00081E7022003B0BDE8F083A16BD36821F834
:1047D000023BE38FA163013B9BB2E387E38F9BB274
:1047E000002BC3D09368D807EFD401F0B7FB801B30
:1047F000A84201D3032060E72268EFE701F0AEFB97
:10480000E38F22689BB2002BA0D1AFE79368190613
:10481000BBD501F0A3FB801B85422268B0D861683C
:104820005368B1F5827F23F0E003536000F0A88065
:10483000A36AB3F5005F07D1136823F40053136034
:10484000136843F400531360012384F85130636DFF
:10485000002043F020032021636584F85000616547
:1048600093E7E38F9BB2002B81D06F1C0ED028E022
:10487000A36B127B1A70E28FA16B013A92B2E287AE
:10488000E38F01319BB2A1634BB122689368D807D3
:10489000EED401F063FBE38F9BB2002BF5D1A16A4C
:1048A000226864E7A36B127B1A70E38FA26B013B53
:1048B0009BB20132E387A263E38F9BB2002BEED061
:1048C00022689368D907EDD401F048FB801BA84209
:1048D000F2D38FE7136843F480531360691C11D13E
:1048E0009368DB07FCD5E368B3F5006FA36B2AD0B0
:1048F000127B1A702268681C1BD19368D907FCD5FB
:10490000D36838E79368DF07EDD401F027FB801BFD
:1049100085421BD92268E1E7A368B3F5004F03D0B5
:10492000B3F5806F7FF42CAF136823F0400313605E
:1049300026E79368DB07E3D401F010FB831B9D425D
:104940002BD92268D7E7D1681980D4E7D4E90031A0
:104950005A68B1F5827F22F0E0025A603AD0A26A2A
:10496000B2F5005F07D11A6822F400521A601A6883
:1049700042F400521A60012384F8513003209CE66F
:10498000A368B3F5004F03D0B3F5806F7FF450AF49
:10499000136823F0400313604AE7D4E900315A68F2
:1049A000B1F5827F22F0E0025A601FD0A26AB2F510
:1049B000005F07D11A6822F400521A601A6842F4A4
:1049C00000521A60012384F85130636D43F00203F2
:1049D00063650FE7A268B2F5004F02D0B2F5806FB1
:1049E000BDD11A6822F040021A60B8E7A268B2F599
:1049F000004F02D0B2F5806FD8D11A6822F0400281
:104A00001A60D3E7034690F85000012851D00120E6
:104A100083F85000002936D0002A34D093F8510092
:104A200001282FD170B42448DE68244C1963002E6D
:104A300008BF204600219C689A86032583F85150C0
:104A40005965DA861A68D987B4F5004F9963998752
:104A5000196408BF1168586404BF41F480411160B3
:104A6000996AB1F5005F1BD0516841F0A001516017
:104A7000106810F040000AD0002283F85020002077
:104A800070BC70470220002283F8502070471168E4
:104A900041F040011160002283F8502070BC704743
:104AA000116821F400511160116841F40051116046
:104AB000DAE70220704700BF6D5200083952000843
:104AC00070B4044690F85000012853D094F8510077
:104AD0000125A842C6B284F850500ED06068B0F5E7
:104AE000827F05D00220002384F8503070BC7047CC
:104AF000A0680028F6D1042EF4D1002938D0002A6D
:104B000036D0002B34D094F85100E6681C4D216358
:104B100004281CBF052084F85100002E19481A49AA
:104B20001A4EA38608BF2846A56AA38718BF0E465B
:104B30000021B5F5005F6165C4E91060E386A263FA
:104B4000E387236807D11A6822F400521A601A68B2
:104B500042F400521A605A6842F0E0025A60186843
:104B600010F0400009D11A6842F040021A60BAE71A
:104B70000120B8E7022070BC70470020B3E700BFF7
:104B8000915500083956000889560008DD5500087F
:104B9000F0B48668134604460A461EB94568B5F562
:104BA000827F4DD094F8501001294FD094F8515085
:104BB00001218D42E8B284F8501005D00220002374
:104BC00084F85030F0BC7047002AF8D0002BF6D0A3
:104BD000E768A2631F49204DA3870022042084F8C0
:104BE00051006265E3872368E286002F08BF2946EB
:104BF000B6F5004F2263A286626408BF1A6821647A
:104C000004BF22F480421A60A26AB2F5005F0ED09F
:104C10005A6842F060025A60186810F0400004D1EF
:104C20001A6842F040021A60C9E70020C7E71A6814
:104C300022F400521A601A6842F400521A60E7E740
:104C4000042580F85150F0BCFFF73ABF0220F0BCB9
:104C5000704700BFF95300089553000870B590F8ED
:104C60005030012B5FD090F8513004460120834230
:104C7000DDB284F8500005D00225002384F85030BE
:104C8000284670BD0029F8D0002AF6D0032384F806
:104C90005130A068A28600236365E2862268E3871C
:104CA000B0F5004FC4E91033A363A38708BF1368AE
:104CB000216304BF43F480431360A36AB3F5005F2C
:104CC00028D0A06C194EE38E0664194EC663194EA7
:104CD000C66400260C3206659BB2FDF723FE88B938
:104CE00023681A68520603D41A6842F040021A6018
:104CF0005A6842F020025A605A6842F002025A6032
:104D00000025BAE7636D012243F01003636584F860
:104D10005120B2E7136823F400531360136843F47F
:104D200000531360CDE70225284670BD1D510008D1
:104D300005570008E156000870B5044690F8500089
:104D4000012873D094F851000125A842C6B284F816
:104D500050500DD06068B0F5827F04D0022000234F
:104D600084F8503070BDA0680028F7D1042EF5D12A
:104D7000002959D0002A57D0002B55D094F8510063
:104D8000216304281CBF052084F85100A06AA38673
:104D90000021B0F5005F6165C4E91011E386216868
:104DA000A263A387E38707D10B6823F400530B604A
:104DB0000B6843F400530B6094F85130E06C042B03
:104DC00007BF204D204B214D214BC0E90F35E38F0C
:104DD000204DC564002505650C319BB2FDF7A2FD91
:104DE000054628BB2268A06C5368216B43F0010381
:104DF0005360E38E0564C0E913550C329BB2C56362
:104E0000FDF790FDA0B923681A68520603D41A680A
:104E100042F040021A605A6842F020025A605A6812
:104E200042F002025A609AE7012098E7022070BD22
:104E3000636D012243F010036365104684F851202E
:104E40008DE700BF2D510008D55700083D510008DF
:104E50003D590008E156000870B5866813460446BF
:104E60000A461EB94568B5F5827F60D094F85010A7
:104E7000012963D094F8510001218842C5B284F819
:104E8000501005D00225002384F85030284670BD0C
:104E9000002AF8D0002BF6D00021042084F851001D
:104EA000216461656164E387A186E1862168A38747
:104EB000B6F5004F08BF0B68A26304BF23F480431C
:104EC0000B60A36AB3F5005F28D0E06C1D4EE38F42
:104ED00006641D4EC6631D4EC66400260C31066571
:104EE0009BB2FDF71FFD88B923681A68520603D4E8
:104EF0001A6842F040021A605A6842F020025A6072
:104F00005A6842F001025A600025BCE7636D012235
:104F100043F01003636584F85120B4E70B6823F471
:104F200000530B600B6843F400530B60CDE704257E
:104F300080F85150BDE87040FFF7FEBE02252846BC
:104F400070BD00BF2D510008D5570008E15600087C
:104F500010B5474B474A1B68A2FB032384B0642269
:104F60005B0A02FB03F30193019B02680093536801
:104F700023F02003536053681906044612D53E4BB4
:104F8000436406E0009B013B009394F85130072BEB
:104F900006D0009B002BF5D1636D43F040036365A1
:104FA000019B009353685B0612D5344B236406E0E3
:104FB000009B013B009394F85130072B06D0009BD7
:104FC000002BF5D1636D43F040036365019B0093B3
:104FD000536898071AD5A06CC0B100230365FDF78C
:104FE000E3FC002841D12268536823F00203536098
:104FF00005E0009B013B00939368990706D4009B52
:10500000002BF6D1636D43F0400363655368DB0703
:1050100011D5E06C78B100230365FDF7C5FC08B13C
:10502000402363652268136823F0400313605368CC
:1050300023F0010353600020E087E086636D402B7E
:105040004FF0000318BF60650293D1680291916828
:1050500002910299039393680393039A08BF012076
:10506000012384F8513004B010BD40236365BAE7D2
:1050700000000020F1197605CD3F0008753F0008BB
:1050800090F85020012A034609D0006842680021A8
:1050900022F003024260084683F850107047022055
:1050A000704700BF90F85020012A034609D00068DD
:1050B0004268002142F003024260084683F8501023
:1050C00070470220704700BF38B50446806C10B1AD
:1050D000FDF76AFCA0B90025E06C38B1FDF764FC6F
:1050E00020B1636D43F010036365012522685368A6
:1050F000012123F00303536084F85110284638BD82
:10510000636D43F0100363650125E5E7704700BF59
:10511000704700BF704700BF704700BF08B5806B85
:10512000FFF7FAFF08BD00BF704700BF08B5806BEE
:10513000FFF7FAFF08BD00BF704700BF08B5806BDE
:10514000FFF7FAFF08BD00BF704700BF30B5384B0E
:10515000384A1B68A2FB032383B064225B0A02FB6C
:1051600003F30446009300F0F9FE2268054605E0CB
:10517000009B013B00939368990706D4009B002B8A
:10518000F6D1636D43F020036365536823F0A003F9
:10519000536005E000F0E2FE401B6328226818D847
:1051A00093681B06F6D4A3682BB90193D3680193C7
:1051B00093680193019B012384F85130636D20466D
:1051C0001BB1FFF7C1FF03B030BDFFF79FFF03B076
:1051D00030BD61685368B1F5827F23F0E00353600E
:1051E000A3681AD0A16AB1F5005F07D1116821F454
:1051F00000511160116841F400511160012184F8DF
:105200005110616D41F020016165616D002041F038
:105210002001616584F85000C6E7B3F5004F02D065
:10522000B3F5806FDED1116821F040011160D9E73C
:1052300000000020F1197605026B036812781A73DA
:10524000C38E026B013B9BB2C386C38E01329BB2FD
:10525000026323B9836AB3F5005F01D076E7704734
:105260000268136843F4805313606FE7026B0168B0
:1052700032F8023BCB60C38E0263013B9BB2C38614
:10528000C38E9BB223B9836AB3F5005F01D05DE79B
:1052900070470B6843F480530B6057E730B50268E2
:1052A0005368044623F06003536083B000F056FE59
:1052B0006368B3F5827F054647D0236805E000F0B8
:1052C0004DFE401B632823681BD89A681106F6D44C
:1052D000A2682AB90192DA6801929A680192019A49
:1052E000012284F851209A68D2063BD4636D20468F
:1052F0001BB1FFF729FF03B030BDFFF709FF03B073
:1053000030BD61685A68B1F5827F22F0E0025A60D0
:10531000A26833D0A16AB1F5005F07D1196821F402
:1053200000511960196841F400511960012184F895
:105330005110616D41F020016165616D002041F007
:105340002001616584F85000C3E7A368B3F5004FFE
:1053500002D0B3F5806FB0D123681A6822F0400202
:105360001A60B2E7626D4FF6EF7142F002026265B9
:1053700020469960FFF7E8FE03B030BDB2F5004F5C
:1053800002D0B2F5806FC5D1196821F040011960D3
:10539000C0E700BF0268836B127B1A70C38F826BF9
:1053A000013B9BB2C387C38F9BB20132012B826347
:1053B00010D0C38F9BB263B9836AB3F5005F12D07C
:1053C0006CE70268136843F480531360C38F9BB289
:1053D0004BB17047836AB3F5005FF2D0C38F9BB2C5
:1053E000002BF6D15AE7014B03647047F1530008D4
:1053F00003681B7B52E700BF0168826BCB6822F811
:10540000023BC38F8263013B9BB2C387C38F9BB2B6
:10541000012B0FD0C38F9BB25BB9836AB3F5005FDA
:1054200011D03BE70B6843F480530B60C38F9BB2F2
:105430004BB17047836AB3F5005FF3D0C38F9BB263
:10544000002BF6D12AE7014B036470475154000842
:105450000368DA685A6822F060025A601EE700BFEB
:1054600030B5494B494A1B68A2FB032383B0642231
:1054700004465B0A02FB03F3009300F06FFD226811
:10548000536823F020030546536005E0009B013B71
:105490000093936898070FD4009B002BF6D1636D9F
:1054A00043F0200363659368190608D500F056FDA4
:1054B000401B6328226824D893681906F6D4A36891
:1054C0002BB90193D368019393680193019B93686F
:1054D000DB063AD4636D63B994F85130042B4FF076
:1054E000010384F85130204649D0FFF713FE03B082
:1054F00030BD012384F851302046FFF725FE03B06C
:1055000030BD61685368B1F5827F23F0E0035360DA
:10551000A36829D0A16AB1F5005F07D1116821F411
:1055200000511160116841F400511160012184F8AB
:105530005110616D41F020016165616D002041F005
:105540002001616584F85000BAE7012384F85130E6
:10555000636D4FF6EF7143F002036365204691607F
:10556000FFF7F2FD03B030BDB3F5004F02D0B3F545
:10557000806FCFD1116821F040011160CAE7FFF7B9
:10558000C7FD03B030BD00BF00000020F119760553
:10559000016B026809781173C28E016B013A92B2F5
:1055A000C286C28E013192B201635AB9826AB2F5E3
:1055B000005F09D001684A6822F080024A60C38F08
:1055C0009BB203B170474BE703681A6842F48052FC
:1055D0001A605A6822F080025A6070470168826B34
:1055E000097B1170C28F816B013A92B2C287C28F60
:1055F000013192B281635AB9826AB2F5005F09D073
:1056000001684A6822F060024A60C38E9BB203B10F
:10561000704725E7014A0264704700BF2156000821
:105620000268117B516821F060015160C38E9BB20A
:1056300003B1704714E700BF016B10B4046831F880
:10564000022BE260C28E0163013A92B2C286C28E20
:1056500092B252B9826AB2F5005F0AD0626822F053
:1056600080026260C38F9BB20BB110BC704710BC4C
:10567000F6E6236843F480532360636823F08003D5
:10568000636010BC704700BF10B40468816BE268AF
:1056900021F8022BC28F8163013A92B2C287C28F76
:1056A00092B252B9826AB2F5005F0AD0626822F003
:1056B00040026260C38E9BB20BB110BC704710BC3D
:1056C000CEE6024A10BC0264704700BFD156000803
:1056D0000368DA685A6822F040025A60C0E600BFE8
:1056E000806B026808B5536823F003035360436D71
:1056F000012143F01003436580F85110FFF724FDAA
:1057000008BD00BF30B5054683B0846B00F026FCB1
:105710002B681B68D90522D423685A6822F020021E
:105720005A605A6822F0020205465A6005E000F00D
:1057300015FC401B6328236816D89A681206F6D415
:10574000A2682AB90192DA6801929B680193019BD1
:1057500001230022E28684F85130636D03BB2046AA
:10576000FFF7D4FC03B030BD61685A68B1F5827FA1
:1057700022F0E0025A60A26820D0A16AB1F5005F71
:1057800013D0012184F85110616D41F02001616551
:10579000616D002041F02001616584F85000D0E780
:1057A0002046FFF7D1FC03B030BD196821F4005149
:1057B0001960196841F400511960E2E7B2F5004F31
:1057C00002D0B2F5806FD8D1196821F0400119607C
:1057D000D3E700BF70B50646846B00F0BFFB3368AB
:1057E0001B68DD0532D42368A16A5A68B1F5005FF1
:1057F00022F0200205465A6032D061685A68B1F53D
:10580000827F22F003025A6013D1A268B2F5004FE2
:1058100002D0B2F5806F0CD11A6822F040021A60F3
:105820009A68110608D500F099FB401B632823688D
:105830002AD89A681106F6D401220021E18784F85B
:1058400051209A68D20611D4636DCBB92046FFF778
:105850005FFC70BD00F082FB401B6328236840D8CA
:105860009A68D007F6D56168DA68C7E7626D4FF6C7
:10587000EF7142F0020262659960636D002BE5D022
:105880002046FFF761FC70BD61685A68B1F5827F00
:1058900022F0E0025A6018D0A26AB2F5005F07D188
:1058A0001A6822F400521A601A6842F400521A6010
:1058B000012284F85120626D002042F02002202154
:1058C000626584F850006165B6E7A268B2F5004FE2
:1058D00002D0B2F5806FDFD11A6822F040021A6060
:1058E000DAE761685A68B1F5827F22F0E0025A6017
:1058F00017D0A26AB2F5005F0AD0012284F85120C5
:10590000626D002042F00202626584F85000ABE74D
:105910001A6822F400521A601A6842F400521A609F
:10592000EBE7A268B2F5004F02D0B2F5806FE0D18C
:105930001A6822F040021A60DBE700BF70B5064625
:10594000846B00F00BFB33681B68DD0522D42368F1
:10595000A16A5A68B1F5005F22F0200205465A603C
:1059600006D121E000F0FAFA401B632823682ED804
:105970009A681106F6D45A68002122F00302012029
:105980005A60E186E18784F851009A68D20610D403
:10599000636DC3B92046FFF7BDFB70BD00F0DEFAB2
:1059A000401B6328236841D89A68D007F6D5DA6887
:1059B000DEE7626D4FF6EF7142F0020262659960B8
:1059C000636D002BE6D02046FFF7BEFB70BD61681B
:1059D0005A68B1F5827F22F0E0025A601AD0A26ABA
:1059E000B2F5005F07D11A6822F400521A601A68F3
:1059F00042F400521A60012284F85120626D42F094
:105A000020026265626D002142F02002626584F826
:105A10005010B0E7A268B2F5004F02D0B2F5806F27
:105A2000DDD11A6822F040021A60D8E761685A682E
:105A3000B1F5827F22F0E0025A6017D0A26AB2F577
:105A4000005F0AD0012284F85120626D002142F0EB
:105A50000202626584F85010A9E71A6822F4005225
:105A60001A601A6842F400521A60EBE7A268B2F5B5
:105A7000004F02D0B2F5806FE0D11A6822F04002E8
:105A80001A60DBE730B502685168936813F0400F85
:105A900085B00446C3F3801505D113F0010F02D081
:105AA00011F0400F7AD1980701D5080670D413F091
:105AB000200FC3F3401049D0880645D575B194F83E
:105AC000510003286CD0606D002540F00400606533
:105AD0000095D0680090906800900098606D002557
:105AE00040F001006065029590680290106820F017
:105AF000400010600298C3F30023002B3ED1636D79
